:10119B00758901758CF6758A3CD2AFD2A9D28C2297
:101177008B688A69896A12119B120ED0AA69A96ABB
:03118700020979E1
:10118A007BFF7A1079BF12117712114F1211AB80BF
:01119A00F85C
:03000B000211BD22
:0711BD00758CFE758A0C32EF
:100ED000E4FFF538F539F53AF53BF53CEF75F009E7
:100EE000A4243FF8E4F608F6EF75F009A42441F8CD
:100EF000E4F608F6EF75F009A4243DF8E4F6EF7582
:100F0000F009A4243EF8E4F6EF75F009A42443F8B0
:0C0F100076000876000876000FBF03C0D2
:010F1C0022B2
:0911AB00053AE53A70020539220B
:10114F00C3E53A953CE539953B4008E4F539F53A66
:04115F00120D3E220D
:100D3E00E4F568F568E568C395385062E56875F0C6
:100D4E0009A4243DF8E664017050E56875F009A425
:100D5E002441F80806E618700106E56875F009A446
:100D6E00243FF8E6FE08E6FFE56875F009A4244185
:100D7E00F8E6FC08E6C39FEC9E401FE56875F00997
:100D8E00A42441F8E4F608F6E56875F009A42443B6
:0E0D9E00F808E6FA08E6F91209790568809768
:010DAC002224
:100E15008E688F698B6A8A6B896CE53875F009A4D1
:100E2500243DF9E4F56DF56E896FE538C3940350FB
:100E3500020538AB6DAA6EA96F900002E568856959
:100E4500F01208F3900001740112083F74011208B2
:100E55002DAB6AAA6BA96CC003C002C001AB6DAA19
:100E65006EA96F9000061209207B007A00796D2229
:1011630028EE32A2E4A121EA20A0602539263171BC
:0411730070B0D0E0A8
:0C10730004700102030401740001750008
:10104D00E4F57490117393F5B0901163E493F590FA
:10105D00756D00756E00756F257BFF7A1179B47F04
:06106D00057E00020E15D5
:100CC4007590FF0574E5745403F57490117393548F
:100CD400F0F5B0857482758300120800FF3395E047
:100CE400FE74632FF58274113EF583E493F59085C9
:100CF4003770E53725E02408F8E6FA08E6FB7C00BF
:100D04007D64FFAE021208738F717C007D64AF03B3
:100D1400AE021208737E007F0ACFCDCFCECCCE12A6
:100D240008738F72E53725E02408F8E6FE08E6FF2D
:0A0D34007C007D0A1208738D732203
:10107F000137001408000000000000000A00000003
:09108F0000000000000000000058
:1010BF0012104D1211091211C4121025753708752F
:1010CF006D00756E00756F2E7BFF7A0F79A27FB85A
:0510DF007E0B020E155E
:0911B4007B007A007970020CC482
:10109900BF010C0537E53775F00A8485F03722EF73
:1010A90070131537E537C394004007E537D3940A21
:0610B90040037537092217
:100F1D00E4F56AF56BFB7A00796AAF0DAE0C120F32
:100F2D00D2C3E56B9509FFE56A9508FED3EF9403EF
:100F3D00EE6480948040077514007515FF22C3EF91
:100F4D0094FDEE6480947F5006E4F514F51522753A
:050F5D001400751550A1
:010F6200226C
:100FA200E4F568F5691210E47B007A007968AF0D08
:100FB200AE0C120FD2E51745167011AD09AC08AF91
:0F0FC20069AE681209EF7514008F1522120F1D0A
:010FD10022FD
:060F63008B6A8A6B896CA9
:100F69007D32ED3395E0FCC3EF9DFFEE9CFE7C00E6
:100F79007D0A1208617D04120873EE8FF01208D4FD
:100F8900AB6AAA6BA96C1208A9C3E5F064809480C6
:080F99005006E4F5F01208D443
:010FA100222D
:060FD2008B6C8A6D896E34
:100FD800756F327C007D0A120873EF7802C333CE36
:100FE80033CED8F92432FFE43EAB6CAA6DA96E8FDC
:040FF800F00208D427
:10110900E4F577F576F56D756E00756F1C7BFF7AE2
:091119001179397FC8FE020E15A0
:100DAD00E4FFF5687590FFC2B2C2B3C2B7D2B4D238
:100DBD00B5D2B630B2047F05800530B3027F01C2D3
:100DCD00B2C2B3D2B7C2B4D2B5D2B630B2047F0676
:100DDD00800530B3027F02C2B2C2B3D2B7D2B4C261
:100DED00B5D2B630B2047F07800530B3027F03C29F
:100DFD00B2C2B3D2B7D2B4D2B5C2B630B2047F0844
:070E0D00800530B3027F04F1
:010E140022BB
:10113900120DADD3EF6480948040028F76EF700575
:05114900AF76120E75E7
:01114E00227E
:100C4700AB07EB64017034E53725E02408F8E6FECE
:100C570008E6FF7C007D64120873C3EF9402EE641C
:100C6700809480E537500A25E02408F808746480EA
:100C77004525E02408F8087438802BEB703EE537EB
:100C870025E02408F8E6FE08E6FF7C007D641208EC
:100C970073C3EF9401EE64809480E537401025E03C
:100CA7002408F808749C26F61874FF36F62225E007
:0D0CB7002408F80874C826F618E436F62262
:100A9D00AB07EB64017041E53725E02408F8E6FE6D
:100AAD0008E6FF7C007D641208737E007F0ACFCDBF
:100ABD00CFCECCCE120873C3EF9409EE6480948030
:100ACD00E537500A25E02408F808740A805225E01D
:100ADD002408F80874A68038EB704BE53725E02420
:100AED0008F8E6FE08E6FF7C007D641208737E00C0
:100AFD007F0ACFCDCFCECCCE120873D3EF9400EEBC
:100B0D0064809480E537401025E02408F80874F6D9
:100B1D0026F61874FF36F62225E02408F808745AD4
:070B2D0026F618E436F6225B
:100BC000AB07EB6401703FE53725E02408F8E6FE4B
:100BD00008E6FF7C007D0A120873C3ED9409EC64FB
:100BE000809480500FE53725E02408F80806E618C1
:100BF00070010622E53725E02408F80874F726F688
:100C00001874FF36F622EB703DE53725E02408F82E
:100C1000E6FE08E6FF7C007D0A120873D3ED94001F
:100C2000EC64809480400FE53725E02408F808E65E
:100C3000161870011622E53725E02408F808740913
:070C400026F618E436F62247
:100E7500EF14B408005050900E8A75F003A4C58392
:100E850025F0C58373020EB8020EC3020EA2020E30
:100E9500AD020EBC020EC7020EA6020EB17F018086
:100EA50002E4FF121099801F7F018002E4FF120CFB
:100EB5004780147F018002E4FF120A9D80097F01AB
:0B0EC5008002E4FF120BC0E4F576226F
:0411C400E4F57922B3
:1010E4001211228F787E008E088F097B007A007996
:1010F4000A120F63E515AE147802C333CE33CED88B
:05110400F9FF020FFCE1
:10112200C2A3D2A4C2A6C2A5D2A5C2A57580FF2021
:06113200A704D2A6AF8065
:011138002294
:100FFC00EF7806C333CE33CED8F9FFC2A0C2A1E43A
:10100C00FDEE3392A2D2A1EF25E0FFEE33FEC2A19A
:08101C000DBD0CEDD2A0C2A134
:0110240022A9
:10102500E4F558F559F55AF55BF55CF55DF55EF5B2
:101035005FF560F561850E62850F63851064851126
:08104500658512668513672220
:1009EF00850E62850F638510648511658512668596
:1009FF0013678E588F59C3E5599DF55DE5589CF5E2
:100A0F005CC3E55D955FFFE55C955EFEAC62AD6333
:100A1F00120861AA06AB07AC5CAD5DAE64AF6512A0
:100A2F000861EB2FFBEA3EFAE55F25E0FFE55E3359
:100A3F00FEC3E55D9FFFE55C9EFEE5612FFFE56070
:100A4F003EFEAC66AD67120861EF2BFBEE3AFAEB98
:100A5F00255BF55BEA355AF55A855C5E855D5F85EA
:100A6F005E60855F61D3EB94C8EA64809480400434
:100A7F007A007BC8C3EA648094805003E4FAFB8554
:0D0A8F005C18855D198A1A8B1BAE02AF033F
:010A9C002237
:03000000020B34BC
:0C0B3400787FE4F6D8FD758179020B7B18
:10080000BB010CE58229F582E5833AF583E02250AD
:1008100006E92582F8E622BBFE06E92582F8E222F7
:0D082000E58229F582E5833AF583E4932211
:10082D00BB010689828A83F0225002F722BBFE01AA
:02083D00F322A4
:10083F00F8BB010DE58229F582E5833AF583E8F0EF
:10084F00225006E92582C8F622BBFE05E92582C89B
:02085F00F22283
:10086100EF8DF0A4A8F0CF8CF0A428CE8DF0A42EAB
:02087100FE2265
:10087300C2D5EC30E709B2D5E4C39DFDE49CFCEEA0
:1008830030E715B2D5E4C39FFFE49EFE12097FC390
:10089300E49DFDE49CFC800312097F30D507C3E48B
:0608A3009FFFE49EFE220F
:1008A900BB010A89828A83E0F5F0A3E0225006871A
:1008B900F009E71922BBFE07E3F5F009E3192289DC
:0B08C900828A83E493F5F0740193220F
:1008D400BB010A89828A83F0E5F0A3F0225006F76F
:0F08E40009A7F01922BBFE06F3E5F009F319226C
:1008F300F8BB0111E58229F582E5833AF583E8F037
:10090300E5F0A3F0225009E92582C8F608A6F022F3
:0D091300BBFE09E92582C8F2E5F008F222DA
:10092000BB0120E58229F582E5833AF583D0F0D03A
:10093000E0F8D0E0F9D0E0FAD0E0FBE8C0E0C0F0A9
:100940000209DD5018E92582F8D083D082D0E0F981
:10095000D0E0FAD0E0FBC082C0830209D4BBFE180D
:10096000E92582F8D083D082D0E0F9D0E0FAD0E057
:09097000FBC082C0830209E622EB
:060979008A838982E47309
:100B400002118AE493A3F8E493A34003F68001F230
:100B500008DFF48029E493A3F85407240CC8C333B6
:100B6000C4540F4420C8834004F456800146F6DF85
:100B7000E4800B0102040810204080901073E47E92
:100B8000019360BCA3FF543F30E509541FFEE4937A
:100B9000A360010ECF54C025E060A840B8E493A341
:100BA000FAE493A3F8E493A3C8C582C8CAC583CA6C
:100BB000F0A3C8C582C8CAC583CADFE9DEE780BE24
:011098000057
:10097F00BC000BBE0029EF8DF084FFADF022E4CC5C
:10098F00F875F008EF2FFFEE33FEEC33FCEE9DEC25
:10099F00984005FCEE9DFE0FD5F0E9E4CEFD22ED6B
:1009AF00F8F5F0EE8420D21CFEADF075F008EF2FB5
:1009BF00FFED33FD4007985006D5F0F222C398FDA6
:0509CF000FD5F0EA2243
:0909D400EBF608EAF608E9F62248
:0909DD00EBF0A3EAF0A3E9F0221B
:0909E600EBF208EAF208E9F22242
:00000001FF
